{
  "_format": "hh-sol-artifact-1",
  "contractName": "MyEpicNFT",
  "sourceName": "contracts/MyEpicNFT.sol",
  "abi": [
    {
      "inputs": [],
      "stateMutability": "nonpayable",
      "type": "constructor"
    },
    {
      "anonymous": false,
      "inputs": [
        {
          "indexed": true,
          "internalType": "address",
          "name": "owner",
          "type": "address"
        },
        {
          "indexed": true,
          "internalType": "address",
          "name": "approved",
          "type": "address"
        },
        {
          "indexed": true,
          "internalType": "uint256",
          "name": "tokenId",
          "type": "uint256"
        }
      ],
      "name": "Approval",
      "type": "event"
    },
    {
      "anonymous": false,
      "inputs": [
        {
          "indexed": true,
          "internalType": "address",
          "name": "owner",
          "type": "address"
        },
        {
          "indexed": true,
          "internalType": "address",
          "name": "operator",
          "type": "address"
        },
        {
          "indexed": false,
          "internalType": "bool",
          "name": "approved",
          "type": "bool"
        }
      ],
      "name": "ApprovalForAll",
      "type": "event"
    },
    {
      "anonymous": false,
      "inputs": [
        {
          "indexed": false,
          "internalType": "address",
          "name": "sender",
          "type": "address"
        },
        {
          "indexed": false,
          "internalType": "uint256",
          "name": "tokenId",
          "type": "uint256"
        }
      ],
      "name": "NewEpicNFTMinted",
      "type": "event"
    },
    {
      "anonymous": false,
      "inputs": [
        {
          "indexed": true,
          "internalType": "address",
          "name": "from",
          "type": "address"
        },
        {
          "indexed": true,
          "internalType": "address",
          "name": "to",
          "type": "address"
        },
        {
          "indexed": true,
          "internalType": "uint256",
          "name": "tokenId",
          "type": "uint256"
        }
      ],
      "name": "Transfer",
      "type": "event"
    },
    {
      "inputs": [
        {
          "internalType": "address",
          "name": "to",
          "type": "address"
        },
        {
          "internalType": "uint256",
          "name": "tokenId",
          "type": "uint256"
        }
      ],
      "name": "approve",
      "outputs": [],
      "stateMutability": "nonpayable",
      "type": "function"
    },
    {
      "inputs": [
        {
          "internalType": "address",
          "name": "owner",
          "type": "address"
        }
      ],
      "name": "balanceOf",
      "outputs": [
        {
          "internalType": "uint256",
          "name": "",
          "type": "uint256"
        }
      ],
      "stateMutability": "view",
      "type": "function"
    },
    {
      "inputs": [
        {
          "internalType": "uint256",
          "name": "tokenId",
          "type": "uint256"
        }
      ],
      "name": "getApproved",
      "outputs": [
        {
          "internalType": "address",
          "name": "",
          "type": "address"
        }
      ],
      "stateMutability": "view",
      "type": "function"
    },
    {
      "inputs": [
        {
          "internalType": "address",
          "name": "owner",
          "type": "address"
        },
        {
          "internalType": "address",
          "name": "operator",
          "type": "address"
        }
      ],
      "name": "isApprovedForAll",
      "outputs": [
        {
          "internalType": "bool",
          "name": "",
          "type": "bool"
        }
      ],
      "stateMutability": "view",
      "type": "function"
    },
    {
      "inputs": [],
      "name": "makeAnEpicNFT",
      "outputs": [],
      "stateMutability": "nonpayable",
      "type": "function"
    },
    {
      "inputs": [],
      "name": "name",
      "outputs": [
        {
          "internalType": "string",
          "name": "",
          "type": "string"
        }
      ],
      "stateMutability": "view",
      "type": "function"
    },
    {
      "inputs": [
        {
          "internalType": "uint256",
          "name": "tokenId",
          "type": "uint256"
        }
      ],
      "name": "ownerOf",
      "outputs": [
        {
          "internalType": "address",
          "name": "",
          "type": "address"
        }
      ],
      "stateMutability": "view",
      "type": "function"
    },
    {
      "inputs": [
        {
          "internalType": "uint256",
          "name": "tokenId",
          "type": "uint256"
        }
      ],
      "name": "pickRandomColor",
      "outputs": [
        {
          "internalType": "string",
          "name": "",
          "type": "string"
        }
      ],
      "stateMutability": "view",
      "type": "function"
    },
    {
      "inputs": [
        {
          "internalType": "uint256",
          "name": "tokenId",
          "type": "uint256"
        }
      ],
      "name": "pickRandomFirstWord",
      "outputs": [
        {
          "internalType": "string",
          "name": "",
          "type": "string"
        }
      ],
      "stateMutability": "view",
      "type": "function"
    },
    {
      "inputs": [
        {
          "internalType": "uint256",
          "name": "tokenId",
          "type": "uint256"
        }
      ],
      "name": "pickRandomSecondWord",
      "outputs": [
        {
          "internalType": "string",
          "name": "",
          "type": "string"
        }
      ],
      "stateMutability": "view",
      "type": "function"
    },
    {
      "inputs": [
        {
          "internalType": "uint256",
          "name": "tokenId",
          "type": "uint256"
        }
      ],
      "name": "pickRandomThirdWord",
      "outputs": [
        {
          "internalType": "string",
          "name": "",
          "type": "string"
        }
      ],
      "stateMutability": "view",
      "type": "function"
    },
    {
      "inputs": [
        {
          "internalType": "address",
          "name": "from",
          "type": "address"
        },
        {
          "internalType": "address",
          "name": "to",
          "type": "address"
        },
        {
          "internalType": "uint256",
          "name": "tokenId",
          "type": "uint256"
        }
      ],
      "name": "safeTransferFrom",
      "outputs": [],
      "stateMutability": "nonpayable",
      "type": "function"
    },
    {
      "inputs": [
        {
          "internalType": "address",
          "name": "from",
          "type": "address"
        },
        {
          "internalType": "address",
          "name": "to",
          "type": "address"
        },
        {
          "internalType": "uint256",
          "name": "tokenId",
          "type": "uint256"
        },
        {
          "internalType": "bytes",
          "name": "_data",
          "type": "bytes"
        }
      ],
      "name": "safeTransferFrom",
      "outputs": [],
      "stateMutability": "nonpayable",
      "type": "function"
    },
    {
      "inputs": [
        {
          "internalType": "address",
          "name": "operator",
          "type": "address"
        },
        {
          "internalType": "bool",
          "name": "approved",
          "type": "bool"
        }
      ],
      "name": "setApprovalForAll",
      "outputs": [],
      "stateMutability": "nonpayable",
      "type": "function"
    },
    {
      "inputs": [
        {
          "internalType": "bytes4",
          "name": "interfaceId",
          "type": "bytes4"
        }
      ],
      "name": "supportsInterface",
      "outputs": [
        {
          "internalType": "bool",
          "name": "",
          "type": "bool"
        }
      ],
      "stateMutability": "view",
      "type": "function"
    },
    {
      "inputs": [],
      "name": "symbol",
      "outputs": [
        {
          "internalType": "string",
          "name": "",
          "type": "string"
        }
      ],
      "stateMutability": "view",
      "type": "function"
    },
    {
      "inputs": [
        {
          "internalType": "uint256",
          "name": "tokenId",
          "type": "uint256"
        }
      ],
      "name": "tokenURI",
      "outputs": [
        {
          "internalType": "string",
          "name": "",
          "type": "string"
        }
      ],
      "stateMutability": "view",
      "type": "function"
    },
    {
      "inputs": [
        {
          "internalType": "address",
          "name": "from",
          "type": "address"
        },
        {
          "internalType": "address",
          "name": "to",
          "type": "address"
        },
        {
          "internalType": "uint256",
          "name": "tokenId",
          "type": "uint256"
        }
      ],
      "name": "transferFrom",
      "outputs": [],
      "stateMutability": "nonpayable",
      "type": "function"
    }
  ],
  "bytecode": "0x608060405260405180610100016040528060d381526020016200479360d39139600890805190602001906200003692919062000867565b506040518060800160405280605681526020016200486660569139600990805190602001906200006892919062000867565b506040518060e001604052806040518060400160405280600981526020017f46616e746173746963000000000000000000000000000000000000000000000081525081526020016040518060400160405280600481526020017f457069630000000000000000000000000000000000000000000000000000000081525081526020016040518060400160405280600881526020017f5465727269626c6500000000000000000000000000000000000000000000000081525081526020016040518060400160405280600581526020017f4372617a7900000000000000000000000000000000000000000000000000000081525081526020016040518060400160405280600481526020017f57696c640000000000000000000000000000000000000000000000000000000081525081526020016040518060400160405280600a81526020017f54657272696679696e670000000000000000000000000000000000000000000081525081526020016040518060400160405280600681526020017f53706f6f6b790000000000000000000000000000000000000000000000000000815250815250600a90600762000221929190620008f8565b506040518060c001604052806040518060400160405280600381526020017f436174000000000000000000000000000000000000000000000000000000000081525081526020016040518060400160405280600381526020017f446f67000000000000000000000000000000000000000000000000000000000081525081526020016040518060400160405280600881526020017f456c657068616e7400000000000000000000000000000000000000000000000081525081526020016040518060400160405280600581526020017f4561676c6500000000000000000000000000000000000000000000000000000081525081526020016040518060400160405280600481526020017f42756c6c0000000000000000000000000000000000000000000000000000000081525081526020016040518060400160405280600481526020017f4265617200000000000000000000000000000000000000000000000000000000815250815250600b9060066200039f9291906200095f565b506040518060c001604052806040518060400160405280600681526020017f506572736f6e000000000000000000000000000000000000000000000000000081525081526020016040518060400160405280600581526020017f416c69656e00000000000000000000000000000000000000000000000000000081525081526020016040518060400160405280600581526020017f53796e746800000000000000000000000000000000000000000000000000000081525081526020016040518060400160405280600681526020017f4379626f7267000000000000000000000000000000000000000000000000000081525081526020016040518060400160405280600581526020017f526f626f7400000000000000000000000000000000000000000000000000000081525081526020016040518060400160405280600781526020017f4d6f6e7374657200000000000000000000000000000000000000000000000000815250815250600c9060066200051d9291906200095f565b506040518060c001604052806040518060400160405280600381526020017f726564000000000000000000000000000000000000000000000000000000000081525081526020016040518060400160405280600781526020017f233038433241380000000000000000000000000000000000000000000000000081525081526020016040518060400160405280600581526020017f626c61636b00000000000000000000000000000000000000000000000000000081525081526020016040518060400160405280600681526020017f79656c6c6f77000000000000000000000000000000000000000000000000000081525081526020016040518060400160405280600481526020017f626c75650000000000000000000000000000000000000000000000000000000081525081526020016040518060400160405280600581526020017f677265656e000000000000000000000000000000000000000000000000000000815250815250600d9060066200069b9291906200095f565b50348015620006a957600080fd5b506040518060400160405280600981526020017f5371756172654e465400000000000000000000000000000000000000000000008152506040518060400160405280600681526020017f535155415245000000000000000000000000000000000000000000000000000081525081600090805190602001906200072e92919062000867565b5080600190805190602001906200074792919062000867565b505050620007956040518060400160405280601e81526020017f54686973206973206d79204e465420636f6e74726163742e20576f61682100008152506200079b60201b620012af1760201c565b62000b80565b6200083b81604051602401620007b2919062000a94565b6040516020818303038152906040527f41304fac000000000000000000000000000000000000000000000000000000007bffffffffffffffffffffffffffffffffffffffffffffffffffffffff19166020820180517bffffffffffffffffffffffffffffffffffffffffffffffffffffffff83818316178352505050506200083e60201b60201c565b50565b60008151905060006a636f6e736f6c652e6c6f679050602083016000808483855afa5050505050565b828054620008759062000b0a565b90600052602060002090601f016020900481019282620008995760008555620008e5565b82601f10620008b457805160ff1916838001178555620008e5565b82800160010185558215620008e5579182015b82811115620008e4578251825591602001919060010190620008c7565b5b509050620008f49190620009c6565b5090565b8280548282559060005260206000209081019282156200094c579160200282015b828111156200094b5782518290805190602001906200093a92919062000867565b509160200191906001019062000919565b5b5090506200095b9190620009e5565b5090565b828054828255906000526020600020908101928215620009b3579160200282015b82811115620009b2578251829080519060200190620009a192919062000867565b509160200191906001019062000980565b5b509050620009c29190620009e5565b5090565b5b80821115620009e1576000816000905550600101620009c7565b5090565b5b8082111562000a095760008181620009ff919062000a0d565b50600101620009e6565b5090565b50805462000a1b9062000b0a565b6000825580601f1062000a2f575062000a50565b601f01602090049060005260206000209081019062000a4f9190620009c6565b5b50565b600062000a608262000ab8565b62000a6c818562000ac3565b935062000a7e81856020860162000ad4565b62000a898162000b6f565b840191505092915050565b6000602082019050818103600083015262000ab0818462000a53565b905092915050565b600081519050919050565b600082825260208201905092915050565b60005b8381101562000af457808201518184015260208101905062000ad7565b8381111562000b04576000848401525b50505050565b6000600282049050600182168062000b2357607f821691505b6020821081141562000b3a5762000b3962000b40565b5b50919050565b7f4e487b7100000000000000000000000000000000000000000000000000000000600052602260045260246000fd5b6000601f19601f8301169050919050565b613c038062000b906000396000f3fe608060405234801561001057600080fd5b50600436106101165760003560e01c806370a08231116100a2578063b88d4fde11610071578063b88d4fde14610317578063c575757a14610333578063c87b56dd14610363578063de9d132f14610393578063e985e9c51461039d57610116565b806370a082311461027d57806395d89b41146102ad578063a22cb465146102cb578063b187301f146102e757610116565b806323b872dd116100e957806323b872dd146101b55780632de38d68146101d157806342842e0e14610201578063514dc8c61461021d5780636352211e1461024d57610116565b806301ffc9a71461011b57806306fdde031461014b578063081812fc14610169578063095ea7b314610199575b600080fd5b610135600480360381019061013091906126af565b6103cd565b6040516101429190612e18565b60405180910390f35b6101536104af565b6040516101609190612e33565b60405180910390f35b610183600480360381019061017e9190612701565b610541565b6040516101909190612d88565b60405180910390f35b6101b360048036038101906101ae9190612673565b6105c6565b005b6101cf60048036038101906101ca919061256d565b6106de565b005b6101eb60048036038101906101e69190612701565b61073e565b6040516101f89190612e33565b60405180910390f35b61021b6004803603810190610216919061256d565b61085c565b005b61023760048036038101906102329190612701565b61087c565b6040516102449190612e33565b60405180910390f35b61026760048036038101906102629190612701565b61099a565b6040516102749190612d88565b60405180910390f35b61029760048036038101906102929190612508565b610a4c565b6040516102a49190613093565b60405180910390f35b6102b5610b04565b6040516102c29190612e33565b60405180910390f35b6102e560048036038101906102e09190612637565b610b96565b005b61030160048036038101906102fc9190612701565b610bac565b60405161030e9190612e33565b60405180910390f35b610331600480360381019061032c91906125bc565b610cca565b005b61034d60048036038101906103489190612701565b610d2c565b60405161035a9190612e33565b60405180910390f35b61037d60048036038101906103789190612701565b610e4a565b60405161038a9190612e33565b60405180910390f35b61039b610f9c565b005b6103b760048036038101906103b29190612531565b61121b565b6040516103c49190612e18565b60405180910390f35b60007f80ac58cd000000000000000000000000000000000000000000000000000000007bffffffffffffffffffffffffffffffffffffffffffffffffffffffff1916827bffffffffffffffffffffffffffffffffffffffffffffffffffffffff1916148061049857507f5b5e139f000000000000000000000000000000000000000000000000000000007bffffffffffffffffffffffffffffffffffffffffffffffffffffffff1916827bffffffffffffffffffffffffffffffffffffffffffffffffffffffff1916145b806104a857506104a782611348565b5b9050919050565b6060600080546104be90613327565b80601f01602080910402602001604051908101604052809291908181526020018280546104ea90613327565b80156105375780601f1061050c57610100808354040283529160200191610537565b820191906000526020600020905b81548152906001019060200180831161051a57829003601f168201915b5050505050905090565b600061054c826113b2565b61058b576040517f08c379a000000000000000000000000000000000000000000000000000000000815260040161058290612ff3565b60405180910390fd5b6004600083815260200190815260200160002060009054906101000a900473ffffffffffffffffffffffffffffffffffffffff169050919050565b60006105d18261099a565b90508073ffffffffffffffffffffffffffffffffffffffff168373ffffffffffffffffffffffffffffffffffffffff161415610642576040517f08c379a000000000000000000000000000000000000000000000000000000000815260040161063990613053565b60405180910390fd5b8073ffffffffffffffffffffffffffffffffffffffff1661066161141e565b73ffffffffffffffffffffffffffffffffffffffff161480610690575061068f8161068a61141e565b61121b565b5b6106cf576040517f08c379a00000000000000000000000000000000000000000000000000000000081526004016106c690612f33565b60405180910390fd5b6106d98383611426565b505050565b6106ef6106e961141e565b826114df565b61072e576040517f08c379a000000000000000000000000000000000000000000000000000000000815260040161072590613073565b60405180910390fd5b6107398383836115bd565b505050565b6060600061077261074e84611819565b60405160200161075e9190612d22565b6040516020818303038152906040526119c6565b9050600a805490508161078591906133d3565b9050600a81815481106107c1577f4e487b7100000000000000000000000000000000000000000000000000000000600052603260045260246000fd5b9060005260206000200180546107d690613327565b80601f016020809104026020016040519081016040528092919081815260200182805461080290613327565b801561084f5780601f106108245761010080835404028352916020019161084f565b820191906000526020600020905b81548152906001019060200180831161083257829003601f168201915b5050505050915050919050565b61087783838360405180602001604052806000815250610cca565b505050565b606060006108b061088c84611819565b60405160200161089c9190612d66565b6040516020818303038152906040526119c6565b9050600d80549050816108c391906133d3565b9050600d81815481106108ff577f4e487b7100000000000000000000000000000000000000000000000000000000600052603260045260246000fd5b90600052602060002001805461091490613327565b80601f016020809104026020016040519081016040528092919081815260200182805461094090613327565b801561098d5780601f106109625761010080835404028352916020019161098d565b820191906000526020600020905b81548152906001019060200180831161097057829003601f168201915b5050505050915050919050565b6000806002600084815260200190815260200160002060009054906101000a900473ffffffffffffffffffffffffffffffffffffffff169050600073ffffffffffffffffffffffffffffffffffffffff168173ffffffffffffffffffffffffffffffffffffffff161415610a43576040517f08c379a0000000000000000000000000000000000000000000000000000000008152600401610a3a90612f73565b60405180910390fd5b80915050919050565b60008073ffffffffffffffffffffffffffffffffffffffff168273ffffffffffffffffffffffffffffffffffffffff161415610abd576040517f08c379a0000000000000000000000000000000000000000000000000000000008152600401610ab490612f53565b60405180910390fd5b600360008373ffffffffffffffffffffffffffffffffffffffff1673ffffffffffffffffffffffffffffffffffffffff168152602001908152602001600020549050919050565b606060018054610b1390613327565b80601f0160208091040260200160405190810160405280929190818152602001828054610b3f90613327565b8015610b8c5780601f10610b6157610100808354040283529160200191610b8c565b820191906000526020600020905b815481529060010190602001808311610b6f57829003601f168201915b5050505050905090565b610ba8610ba161141e565b83836119f9565b5050565b60606000610be0610bbc84611819565b604051602001610bcc9190612cbb565b6040516020818303038152906040526119c6565b9050600b8054905081610bf391906133d3565b9050600b8181548110610c2f577f4e487b7100000000000000000000000000000000000000000000000000000000600052603260045260246000fd5b906000526020600020018054610c4490613327565b80601f0160208091040260200160405190810160405280929190818152602001828054610c7090613327565b8015610cbd5780601f10610c9257610100808354040283529160200191610cbd565b820191906000526020600020905b815481529060010190602001808311610ca057829003601f168201915b5050505050915050919050565b610cdb610cd561141e565b836114df565b610d1a576040517f08c379a0000000000000000000000000000000000000000000000000000000008152600401610d1190613073565b60405180910390fd5b610d2684848484611b66565b50505050565b60606000610d60610d3c84611819565b604051602001610d4c9190612c99565b6040516020818303038152906040526119c6565b9050600c8054905081610d7391906133d3565b9050600c8181548110610daf577f4e487b7100000000000000000000000000000000000000000000000000000000600052603260045260246000fd5b906000526020600020018054610dc490613327565b80601f0160208091040260200160405190810160405280929190818152602001828054610df090613327565b8015610e3d5780601f10610e1257610100808354040283529160200191610e3d565b820191906000526020600020905b815481529060010190602001808311610e2057829003601f168201915b5050505050915050919050565b6060610e55826113b2565b610e94576040517f08c379a0000000000000000000000000000000000000000000000000000000008152600401610e8b90612fd3565b60405180910390fd5b6000600660008481526020019081526020016000208054610eb490613327565b80601f0160208091040260200160405190810160405280929190818152602001828054610ee090613327565b8015610f2d5780601f10610f0257610100808354040283529160200191610f2d565b820191906000526020600020905b815481529060010190602001808311610f1057829003601f168201915b505050505090506000610f3e611bc2565b9050600081511415610f54578192505050610f97565b600082511115610f89578082604051602001610f71929190612bfb565b60405160208183030381529060405292505050610f97565b610f9284611bd9565b925050505b919050565b6000610fa86007611c80565b90506000610fb58261073e565b90506000610fc283610bac565b90506000610fcf84610d2c565b90506000838383604051602001610fe893929190612c1f565b604051602081830303815290604052905060006110048661087c565b905060006008826009856040516020016110219493929190612c50565b60405160208183030381529060405290506110706040518060400160405280601581526020017f0a2d2d2d2d2d2d2d2d2d2d2d2d2d2d2d2d2d2d2d2d00000000000000000000008152506112af565b611079816112af565b6110b76040518060400160405280601581526020017f2d2d2d2d2d2d2d2d2d2d2d2d2d2d2d2d2d2d2d2d0a00000000000000000000008152506112af565b60006110eb846110c684611c8e565b6040516020016110d7929190612cdd565b604051602081830303815290604052611c8e565b90506000816040516020016111009190612d44565b604051602081830303815290604052905061114f6040518060400160405280601581526020017f0a2d2d2d2d2d2d2d2d2d2d2d2d2d2d2d2d2d2d2d2d00000000000000000000008152506112af565b611158816112af565b6111966040518060400160405280601581526020017f2d2d2d2d2d2d2d2d2d2d2d2d2d2d2d2d2d2d2d2d0a00000000000000000000008152506112af565b6111a0338a611e4c565b6111aa8982611e6a565b6111b46007611ede565b6111d7604051806060016040528060258152602001613b69602591398a33611ef4565b7febb98688741ffa4c7589bf325de30cf7becb63de567842e1ccdb6cb949fdc82c338a604051611208929190612def565b60405180910390a1505050505050505050565b6000600560008473ffffffffffffffffffffffffffffffffffffffff1673ffffffffffffffffffffffffffffffffffffffff16815260200190815260200160002060008373ffffffffffffffffffffffffffffffffffffffff1673ffffffffffffffffffffffffffffffffffffffff16815260200190815260200160002060009054906101000a900460ff16905092915050565b611345816040516024016112c39190612e33565b6040516020818303038152906040527f41304fac000000000000000000000000000000000000000000000000000000007bffffffffffffffffffffffffffffffffffffffffffffffffffffffff19166020820180517bffffffffffffffffffffffffffffffffffffffffffffffffffffffff8381831617835250505050611f93565b50565b60007f01ffc9a7000000000000000000000000000000000000000000000000000000007bffffffffffffffffffffffffffffffffffffffffffffffffffffffff1916827bffffffffffffffffffffffffffffffffffffffffffffffffffffffff1916149050919050565b60008073ffffffffffffffffffffffffffffffffffffffff166002600084815260200190815260200160002060009054906101000a900473ffffffffffffffffffffffffffffffffffffffff1673ffffffffffffffffffffffffffffffffffffffff1614159050919050565b600033905090565b816004600083815260200190815260200160002060006101000a81548173ffffffffffffffffffffffffffffffffffffffff021916908373ffffffffffffffffffffffffffffffffffffffff160217905550808273ffffffffffffffffffffffffffffffffffffffff166114998361099a565b73ffffffffffffffffffffffffffffffffffffffff167f8c5be1e5ebec7d5bd14f71427d1e84f3dd0314c0f7b2291e5b200ac8c7c3b92560405160405180910390a45050565b60006114ea826113b2565b611529576040517f08c379a000000000000000000000000000000000000000000000000000000000815260040161152090612f13565b60405180910390fd5b60006115348361099a565b90508073ffffffffffffffffffffffffffffffffffffffff168473ffffffffffffffffffffffffffffffffffffffff1614806115a357508373ffffffffffffffffffffffffffffffffffffffff1661158b84610541565b73ffffffffffffffffffffffffffffffffffffffff16145b806115b457506115b3818561121b565b5b91505092915050565b8273ffffffffffffffffffffffffffffffffffffffff166115dd8261099a565b73ffffffffffffffffffffffffffffffffffffffff1614611633576040517f08c379a000000000000000000000000000000000000000000000000000000000815260040161162a90613013565b60405180910390fd5b600073ffffffffffffffffffffffffffffffffffffffff168273ffffffffffffffffffffffffffffffffffffffff1614156116a3576040517f08c379a000000000000000000000000000000000000000000000000000000000815260040161169a90612ed3565b60405180910390fd5b6116ae838383611fbc565b6116b9600082611426565b6001600360008573ffffffffffffffffffffffffffffffffffffffff1673ffffffffffffffffffffffffffffffffffffffff1681526020019081526020016000206000828254611709919061323d565b925050819055506001600360008473ffffffffffffffffffffffffffffffffffffffff1673ffffffffffffffffffffffffffffffffffffffff1681526020019081526020016000206000828254611760919061315c565b92505081905550816002600083815260200190815260200160002060006101000a81548173ffffffffffffffffffffffffffffffffffffffff021916908373ffffffffffffffffffffffffffffffffffffffff160217905550808273ffffffffffffffffffffffffffffffffffffffff168473ffffffffffffffffffffffffffffffffffffffff167fddf252ad1be2c89b69c2b068fc378daa952ba7f163c4a11628f55a4df523b3ef60405160405180910390a4505050565b60606000821415611861576040518060400160405280600181526020017f300000000000000000000000000000000000000000000000000000000000000081525090506119c1565b600082905060005b6000821461189357808061187c9061338a565b915050600a8261188c91906131b2565b9150611869565b60008167ffffffffffffffff8111156118d5577f4e487b7100000000000000000000000000000000000000000000000000000000600052604160045260246000fd5b6040519080825280601f01601f1916602001820160405280156119075781602001600182028036833780820191505090505b5090505b600085146119ba57600182611920919061323d565b9150600a8561192f91906133d3565b603061193b919061315c565b60f81b818381518110611977577f4e487b7100000000000000000000000000000000000000000000000000000000600052603260045260246000fd5b60200101907effffffffffffffffffffffffffffffffffffffffffffffffffffffffffffff1916908160001a905350600a856119b391906131b2565b945061190b565b8093505050505b919050565b6000816040516020016119d99190612be4565b6040516020818303038152906040528051906020012060001c9050919050565b8173ffffffffffffffffffffffffffffffffffffffff168373ffffffffffffffffffffffffffffffffffffffff161415611a68576040517f08c379a0000000000000000000000000000000000000000000000000000000008152600401611a5f90612ef3565b60405180910390fd5b80600560008573ffffffffffffffffffffffffffffffffffffffff1673ffffffffffffffffffffffffffffffffffffffff16815260200190815260200160002060008473ffffffffffffffffffffffffffffffffffffffff1673ffffffffffffffffffffffffffffffffffffffff16815260200190815260200160002060006101000a81548160ff0219169083151502179055508173ffffffffffffffffffffffffffffffffffffffff168373ffffffffffffffffffffffffffffffffffffffff167f17307eab39ab6107e8899845ad3d59bd9653f200f220920489ca2b5937696c3183604051611b599190612e18565b60405180910390a3505050565b611b718484846115bd565b611b7d84848484611fc1565b611bbc576040517f08c379a0000000000000000000000000000000000000000000000000000000008152600401611bb390612e93565b60405180910390fd5b50505050565b606060405180602001604052806000815250905090565b6060611be4826113b2565b611c23576040517f08c379a0000000000000000000000000000000000000000000000000000000008152600401611c1a90613033565b60405180910390fd5b6000611c2d611bc2565b90506000815111611c4d5760405180602001604052806000815250611c78565b80611c5784611819565b604051602001611c68929190612bfb565b6040516020818303038152906040525b915050919050565b600081600001549050919050565b60606000825190506000811415611cb75760405180602001604052806000815250915050611e47565b60006003600283611cc8919061315c565b611cd291906131b2565b6004611cde91906131e3565b90506000602082611cef919061315c565b67ffffffffffffffff811115611d2e577f4e487b7100000000000000000000000000000000000000000000000000000000600052604160045260246000fd5b6040519080825280601f01601f191660200182016040528015611d605781602001600182028036833780820191505090505b5090506000604051806060016040528060408152602001613b8e604091399050600181016020830160005b86811015611e045760038101905062ffffff818a015116603f8160121c168401518060081b905060ff603f83600c1c1686015116810190508060081b905060ff603f8360061c1686015116810190508060081b905060ff603f831686015116810190508060e01b90508084526004840193505050611d8b565b506003860660018114611e1e5760028114611e2e57611e39565b613d3d60f01b6002830352611e39565b603d60f81b60018303525b508484525050819450505050505b919050565b611e66828260405180602001604052806000815250612158565b5050565b611e73826113b2565b611eb2576040517f08c379a0000000000000000000000000000000000000000000000000000000008152600401611ea990612f93565b60405180910390fd5b80600660008481526020019081526020016000209080519060200190611ed9929190612394565b505050565b6001816000016000828254019250508190555050565b611f8e838383604051602401611f0c93929190612e55565b6040516020818303038152906040527fe3849f79000000000000000000000000000000000000000000000000000000007bffffffffffffffffffffffffffffffffffffffffffffffffffffffff19166020820180517bffffffffffffffffffffffffffffffffffffffffffffffffffffffff8381831617835250505050611f93565b505050565b60008151905060006a636f6e736f6c652e6c6f679050602083016000808483855afa5050505050565b505050565b6000611fe28473ffffffffffffffffffffffffffffffffffffffff166121b3565b1561214b578373ffffffffffffffffffffffffffffffffffffffff1663150b7a0261200b61141e565b8786866040518563ffffffff1660e01b815260040161202d9493929190612da3565b602060405180830381600087803b15801561204757600080fd5b505af192505050801561207857506040513d601f19601f8201168201806040525081019061207591906126d8565b60015b6120fb573d80600081146120a8576040519150601f19603f3d011682016040523d82523d6000602084013e6120ad565b606091505b506000815114156120f3576040517f08c379a00000000000000000000000000000000000000000000000000000000081526004016120ea90612e93565b60405180910390fd5b805181602001fd5b63150b7a0260e01b7bffffffffffffffffffffffffffffffffffffffffffffffffffffffff1916817bffffffffffffffffffffffffffffffffffffffffffffffffffffffff191614915050612150565b600190505b949350505050565b61216283836121c6565b61216f6000848484611fc1565b6121ae576040517f08c379a00000000000000000000000000000000000000000000000000000000081526004016121a590612e93565b60405180910390fd5b505050565b600080823b905060008111915050919050565b600073ffffffffffffffffffffffffffffffffffffffff168273ffffffffffffffffffffffffffffffffffffffff161415612236576040517f08c379a000000000000000000000000000000000000000000000000000000000815260040161222d90612fb3565b60405180910390fd5b61223f816113b2565b1561227f576040517f08c379a000000000000000000000000000000000000000000000000000000000815260040161227690612eb3565b60405180910390fd5b61228b60008383611fbc565b6001600360008473ffffffffffffffffffffffffffffffffffffffff1673ffffffffffffffffffffffffffffffffffffffff16815260200190815260200160002060008282546122db919061315c565b92505081905550816002600083815260200190815260200160002060006101000a81548173ffffffffffffffffffffffffffffffffffffffff021916908373ffffffffffffffffffffffffffffffffffffffff160217905550808273ffffffffffffffffffffffffffffffffffffffff16600073ffffffffffffffffffffffffffffffffffffffff167fddf252ad1be2c89b69c2b068fc378daa952ba7f163c4a11628f55a4df523b3ef60405160405180910390a45050565b8280546123a090613327565b90600052602060002090601f0160209004810192826123c25760008555612409565b82601f106123db57805160ff1916838001178555612409565b82800160010185558215612409579182015b828111156124085782518255916020019190600101906123ed565b5b509050612416919061241a565b5090565b5b8082111561243357600081600090555060010161241b565b5090565b600061244a612445846130d3565b6130ae565b90508281526020810184848401111561246257600080fd5b61246d8482856132e5565b509392505050565b60008135905061248481613b0c565b92915050565b60008135905061249981613b23565b92915050565b6000813590506124ae81613b3a565b92915050565b6000815190506124c381613b3a565b92915050565b600082601f8301126124da57600080fd5b81356124ea848260208601612437565b91505092915050565b60008135905061250281613b51565b92915050565b60006020828403121561251a57600080fd5b600061252884828501612475565b91505092915050565b6000806040838503121561254457600080fd5b600061255285828601612475565b925050602061256385828601612475565b9150509250929050565b60008060006060848603121561258257600080fd5b600061259086828701612475565b93505060206125a186828701612475565b92505060406125b2868287016124f3565b9150509250925092565b600080600080608085870312156125d257600080fd5b60006125e087828801612475565b94505060206125f187828801612475565b9350506040612602878288016124f3565b925050606085013567ffffffffffffffff81111561261f57600080fd5b61262b878288016124c9565b91505092959194509250565b6000806040838503121561264a57600080fd5b600061265885828601612475565b92505060206126698582860161248a565b9150509250929050565b6000806040838503121561268657600080fd5b600061269485828601612475565b92505060206126a5858286016124f3565b9150509250929050565b6000602082840312156126c157600080fd5b60006126cf8482850161249f565b91505092915050565b6000602082840312156126ea57600080fd5b60006126f8848285016124b4565b91505092915050565b60006020828403121561271357600080fd5b6000612721848285016124f3565b91505092915050565b61273381613271565b82525050565b61274281613283565b82525050565b600061275382613119565b61275d818561312f565b935061276d8185602086016132f4565b612776816134c0565b840191505092915050565b600061278c82613124565b6127968185613140565b93506127a68185602086016132f4565b6127af816134c0565b840191505092915050565b60006127c582613124565b6127cf8185613151565b93506127df8185602086016132f4565b80840191505092915050565b600081546127f881613327565b6128028186613151565b9450600182166000811461281d576001811461282e57612861565b60ff19831686528186019350612861565b61283785613104565b60005b838110156128595781548189015260018201915060208101905061283a565b838801955050505b50505092915050565b6000612877603283613140565b9150612882826134d1565b604082019050919050565b600061289a601c83613140565b91506128a582613520565b602082019050919050565b60006128bd600a83613151565b91506128c882613549565b600a82019050919050565b60006128e0602483613140565b91506128eb82613572565b604082019050919050565b6000612903601983613140565b915061290e826135c1565b602082019050919050565b6000612926605583613151565b9150612931826135ea565b605582019050919050565b6000612949600b83613151565b91506129548261365f565b600b82019050919050565b600061296c602c83613140565b915061297782613688565b604082019050919050565b600061298f600d83613151565b915061299a826136d7565b600d82019050919050565b60006129b2603883613140565b91506129bd82613700565b604082019050919050565b60006129d5602a83613140565b91506129e08261374f565b604082019050919050565b60006129f8602983613140565b9150612a038261379e565b604082019050919050565b6000612a1b602e83613140565b9150612a26826137ed565b604082019050919050565b6000612a3e600283613151565b9150612a498261383c565b600282019050919050565b6000612a61602083613140565b9150612a6c82613865565b602082019050919050565b6000612a84603183613140565b9150612a8f8261388e565b604082019050919050565b6000612aa7602c83613140565b9150612ab2826138dd565b604082019050919050565b6000612aca602983613140565b9150612ad58261392c565b604082019050919050565b6000612aed602f83613140565b9150612af88261397b565b604082019050919050565b6000612b10600a83613151565b9150612b1b826139ca565b600a82019050919050565b6000612b33602183613140565b9150612b3e826139f3565b604082019050919050565b6000612b56600a83613151565b9150612b6182613a42565b600a82019050919050565b6000612b79601d83613151565b9150612b8482613a6b565b601d82019050919050565b6000612b9c603183613140565b9150612ba782613a94565b604082019050919050565b6000612bbf600583613151565b9150612bca82613ae3565b600582019050919050565b612bde816132db565b82525050565b6000612bf082846127ba565b915081905092915050565b6000612c0782856127ba565b9150612c1382846127ba565b91508190509392505050565b6000612c2b82866127ba565b9150612c3782856127ba565b9150612c4382846127ba565b9150819050949350505050565b6000612c5c82876127eb565b9150612c6882866127ba565b9150612c7482856127eb565b9150612c8082846127ba565b9150612c8b82612982565b915081905095945050505050565b6000612ca4826128b0565b9150612cb082846127ba565b915081905092915050565b6000612cc68261293c565b9150612cd282846127ba565b915081905092915050565b6000612ce882612b03565b9150612cf482856127ba565b9150612cff82612919565b9150612d0b82846127ba565b9150612d1682612a31565b91508190509392505050565b6000612d2d82612b49565b9150612d3982846127ba565b915081905092915050565b6000612d4f82612b6c565b9150612d5b82846127ba565b915081905092915050565b6000612d7182612bb2565b9150612d7d82846127ba565b915081905092915050565b6000602082019050612d9d600083018461272a565b92915050565b6000608082019050612db8600083018761272a565b612dc5602083018661272a565b612dd26040830185612bd5565b8181036060830152612de48184612748565b905095945050505050565b6000604082019050612e04600083018561272a565b612e116020830184612bd5565b9392505050565b6000602082019050612e2d6000830184612739565b92915050565b60006020820190508181036000830152612e4d8184612781565b905092915050565b60006060820190508181036000830152612e6f8186612781565b9050612e7e6020830185612bd5565b612e8b604083018461272a565b949350505050565b60006020820190508181036000830152612eac8161286a565b9050919050565b60006020820190508181036000830152612ecc8161288d565b9050919050565b60006020820190508181036000830152612eec816128d3565b9050919050565b60006020820190508181036000830152612f0c816128f6565b9050919050565b60006020820190508181036000830152612f2c8161295f565b9050919050565b60006020820190508181036000830152612f4c816129a5565b9050919050565b60006020820190508181036000830152612f6c816129c8565b9050919050565b60006020820190508181036000830152612f8c816129eb565b9050919050565b60006020820190508181036000830152612fac81612a0e565b9050919050565b60006020820190508181036000830152612fcc81612a54565b9050919050565b60006020820190508181036000830152612fec81612a77565b9050919050565b6000602082019050818103600083015261300c81612a9a565b9050919050565b6000602082019050818103600083015261302c81612abd565b9050919050565b6000602082019050818103600083015261304c81612ae0565b9050919050565b6000602082019050818103600083015261306c81612b26565b9050919050565b6000602082019050818103600083015261308c81612b8f565b9050919050565b60006020820190506130a86000830184612bd5565b92915050565b60006130b86130c9565b90506130c48282613359565b919050565b6000604051905090565b600067ffffffffffffffff8211156130ee576130ed613491565b5b6130f7826134c0565b9050602081019050919050565b60008190508160005260206000209050919050565b600081519050919050565b600081519050919050565b600082825260208201905092915050565b600082825260208201905092915050565b600081905092915050565b6000613167826132db565b9150613172836132db565b9250827fffffffffffffffffffffffffffffffffffffffffffffffffffffffffffffffff038211156131a7576131a6613404565b5b828201905092915050565b60006131bd826132db565b91506131c8836132db565b9250826131d8576131d7613433565b5b828204905092915050565b60006131ee826132db565b91506131f9836132db565b9250817fffffffffffffffffffffffffffffffffffffffffffffffffffffffffffffffff048311821515161561323257613231613404565b5b828202905092915050565b6000613248826132db565b9150613253836132db565b92508282101561326657613265613404565b5b828203905092915050565b600061327c826132bb565b9050919050565b60008115159050919050565b60007fffffffff0000000000000000000000000000000000000000000000000000000082169050919050565b600073ffffffffffffffffffffffffffffffffffffffff82169050919050565b6000819050919050565b82818337600083830152505050565b60005b838110156133125780820151818401526020810190506132f7565b83811115613321576000848401525b50505050565b6000600282049050600182168061333f57607f821691505b6020821081141561335357613352613462565b5b50919050565b613362826134c0565b810181811067ffffffffffffffff8211171561338157613380613491565b5b80604052505050565b6000613395826132db565b91507fffffffffffffffffffffffffffffffffffffffffffffffffffffffffffffffff8214156133c8576133c7613404565b5b600182019050919050565b60006133de826132db565b91506133e9836132db565b9250826133f9576133f8613433565b5b828206905092915050565b7f4e487b7100000000000000000000000000000000000000000000000000000000600052601160045260246000fd5b7f4e487b7100000000000000000000000000000000000000000000000000000000600052601260045260246000fd5b7f4e487b7100000000000000000000000000000000000000000000000000000000600052602260045260246000fd5b7f4e487b7100000000000000000000000000000000000000000000000000000000600052604160045260246000fd5b6000601f19601f8301169050919050565b7f4552433732313a207472616e7366657220746f206e6f6e20455243373231526560008201527f63656976657220696d706c656d656e7465720000000000000000000000000000602082015250565b7f4552433732313a20746f6b656e20616c7265616479206d696e74656400000000600082015250565b7f54484952445f574f524400000000000000000000000000000000000000000000600082015250565b7f4552433732313a207472616e7366657220746f20746865207a65726f2061646460008201527f7265737300000000000000000000000000000000000000000000000000000000602082015250565b7f4552433732313a20617070726f766520746f2063616c6c657200000000000000600082015250565b7f222c20226465736372697074696f6e223a2022537472616e6765206d6574617660008201527f657273652063726561747572652e222c2022696d616765223a2022646174613a60208201527f696d6167652f7376672b786d6c3b6261736536342c0000000000000000000000604082015250565b7f5345434f4e445f574f5244000000000000000000000000000000000000000000600082015250565b7f4552433732313a206f70657261746f7220717565727920666f72206e6f6e657860008201527f697374656e7420746f6b656e0000000000000000000000000000000000000000602082015250565b7f3c2f746578743e3c2f7376673e00000000000000000000000000000000000000600082015250565b7f4552433732313a20617070726f76652063616c6c6572206973206e6f74206f7760008201527f6e6572206e6f7220617070726f76656420666f7220616c6c0000000000000000602082015250565b7f4552433732313a2062616c616e636520717565727920666f7220746865207a6560008201527f726f206164647265737300000000000000000000000000000000000000000000602082015250565b7f4552433732313a206f776e657220717565727920666f72206e6f6e657869737460008201527f656e7420746f6b656e0000000000000000000000000000000000000000000000602082015250565b7f45524337323155524953746f726167653a2055524920736574206f66206e6f6e60008201527f6578697374656e7420746f6b656e000000000000000000000000000000000000602082015250565b7f227d000000000000000000000000000000000000000000000000000000000000600082015250565b7f4552433732313a206d696e7420746f20746865207a65726f2061646472657373600082015250565b7f45524337323155524953746f726167653a2055524920717565727920666f722060008201527f6e6f6e6578697374656e7420746f6b656e000000000000000000000000000000602082015250565b7f4552433732313a20617070726f76656420717565727920666f72206e6f6e657860008201527f697374656e7420746f6b656e0000000000000000000000000000000000000000602082015250565b7f4552433732313a207472616e73666572206f6620746f6b656e2074686174206960008201527f73206e6f74206f776e0000000000000000000000000000000000000000000000602082015250565b7f4552433732314d657461646174613a2055524920717565727920666f72206e6f60008201527f6e6578697374656e7420746f6b656e0000000000000000000000000000000000602082015250565b7f7b226e616d65223a202200000000000000000000000000000000000000000000600082015250565b7f4552433732313a20617070726f76616c20746f2063757272656e74206f776e6560008201527f7200000000000000000000000000000000000000000000000000000000000000602082015250565b7f46495253545f574f524400000000000000000000000000000000000000000000600082015250565b7f646174613a6170706c69636174696f6e2f6a736f6e3b6261736536342c000000600082015250565b7f4552433732313a207472616e736665722063616c6c6572206973206e6f74206f60008201527f776e6572206e6f7220617070726f766564000000000000000000000000000000602082015250565b7f434f4c4f52000000000000000000000000000000000000000000000000000000600082015250565b613b1581613271565b8114613b2057600080fd5b50565b613b2c81613283565b8114613b3757600080fd5b50565b613b438161328f565b8114613b4e57600080fd5b50565b613b5a816132db565b8114613b6557600080fd5b5056fe416e204e465420772f20494420257320686173206265656e206d696e74656420746f2025734142434445464748494a4b4c4d4e4f505152535455565758595a6162636465666768696a6b6c6d6e6f707172737475767778797a303132333435363738392b2fa26469706673582212206b9a287fbfa7701aa0c7f51d6d701b35f017ca3345e720ce8aef056515ed6d5d64736f6c634300080400333c73766720786d6c6e733d27687474703a2f2f7777772e77332e6f72672f323030302f73766727207072657365727665417370656374526174696f3d27784d696e594d696e206d656574272076696577426f783d273020302033353020333530273e3c7374796c653e2e62617365207b2066696c6c3a2077686974653b20666f6e742d66616d696c793a2073657269663b20666f6e742d73697a653a20323470783b207d3c2f7374796c653e3c726563742077696474683d273130302527206865696768743d2731303025272066696c6c3d27272f3e3c7465787420783d273530252720793d273530252720636c6173733d27626173652720646f6d696e616e742d626173656c696e653d276d6964646c652720746578742d616e63686f723d276d6964646c65273e",
  "linkReferences": {},
  "deployedLinkReferences": {}
}